:0400000057EF08F0BE
:1006000000537461727400008B968B948B988B9A54
:100610008B9C8B9E949694949498949A949C949E7C
:100620002CEC08F08296828482500F0B3009826E87
:100630008294210E056E760EE82EFED7052EFCD78D
:1006400000D0828482500F0B3009826E8294210E7A
:10065000056E760EE82EFED7052EFCD700D08284DC
:1006600082500F0B3009826E8294210E056E760E39
:10067000E82EFED7052EFCD700D0828482500F0BC7
:100680002009826E8294210E056E760EE82EFED72A
:10069000052EFCD700D0828482500F0B2009826E79
:1006A0008294828482500F0B8009826E8294210E84
:1006B000056E760EE82EFED7052EFCD700D082847C
:1006C00082500F0B826E8294828482500F0BF0094D
:1006D000826E8294210E056E760EE82EFED7052ED0
:1006E000FCD700D0828482500F0B826E8294828469
:1006F00082500F0B1009826E8294210E056E760EC9
:10070000E82EFED7052EFCD700D0828482500F0B36
:10071000826E8294828482500F0B6009826E829472
:10072000210E056E760EE82EFED7052EFCD700D0E2
:10073000000E016E000E44EC07F01200146E000E65
:10074000116E000E106E000E136E000E126EBEECD7
:1007500008F01450B2EC08F09CEC08F00D50B2EC2C
:1007600008F0ACEC08F01428B2EC08F09CEC08F0AF
:100770006B869CEC08F06FCF10F0116A6B9A6B8857
:100780009CEC08F06B869CEC08F06FCF12F0136ABB
:100790006B8A6B889CEC08F0B8EC08F01050166E71
:1007A000156A12501524156E13501620166E010E80
:1007B000016E000E44EC07F015C006F016C007F0FD
:1007C000000E096E640E086E1BEC07F00650300F29
:1007D000F6EC07F0010E016E010E44EC07F0000E7E
:1007E000046E640E036E15C001F016C002F0B4EC86
:1007F00007F001C006F002C007F0000E096E0A0EF5
:10080000086E1BEC07F00650300FF6EC07F0010EF7
:10081000016E020E44EC07F0000E046E640E036ECF
:1008200015C001F016C002F0B4EC07F001C00EF0E4
:1008300002C00FF00EC001F00FC002F0000E046EF7
:100840000A0E036EB4EC07F00150300FF6EC07F01F
:10085000155012001EC020F0216A226A1D34203675
:1008600001E3218020502A6E2A6609D0000E1C6EFA
:10087000000E1D6E000E1E6E000E1F6E1200170E73
:10088000206E1CC021F01DC022F01EC023F02028C5
:10089000246E04D0D890233222322132242EFAD76B
:1008A0002150256E1D8EFF0E1C16FF0E1D16000E0C
:1008B0001E161C50266E1D50276E1E50286E296A6B
:1008C0008E0E2A5E2AAE19D02A50800A206EF10EB2
:1008D000800A205CD8B009D0000E1C6E000E1D6E80
:1008E000000E1E6E000E1F6E1200D89029322832A4
:1008F000273226322A3EF9D714D0170E2A640FD099
:10090000000E1C6E000E1D6E000E1E6E000E1F6E81
:100910001200D89026362736283629362A062A6627
:10092000F8D72550D8B408D0291E281E271E266CBB
:10093000000E27222822292226C01CF027C01DF0E5
:1009400028C01EF029C01FF012000FC013F0146A57
:10095000156A0E34133601E314801350196E1966AC
:1009600007D0000E0D6E000E0E6E000E0F6E120000
:1009700012C013F0146A156A1134133601E314809F
:1009800013501B6E1B6607D0000E0D6E000E0E6E10
:10099000000E0F6E12001B507B0F19260FC01BF0AC
:1009A00012501B1A800E1B160E8E118EFF0E101683
:1009B000FF0E1116000E1216000E166E000E176EA8
:1009C000000E186E070E1A6E0DA006D010501626D7
:1009D0001150172212501822D8900F320E320D32B9
:1009E000D8901036113612361A2EEED7090E1A6E1E
:1009F0000DA006D0105016261150172212501822A2
:100A0000D8900F320E320D32D8901832173216327B
:100A10001A2EEED716C001F017C002F018C003F06E
:100A200019C004F01BC005F07BEC05F001C00DF00F
:100A300002C00EF003C00FF0120094EC06F013ECAD
:100A400008F0A4EC08F042EC08F087EC08F069EC40
:100A500008F004EC03F0000E016E000E44EC07F009
:100A600093EC08F07BEC08F0C4EC08F0060E066E80
:100A7000010E056E12EC06F0000E326E2D0E316E78
:100A8000640ED5EC07F069EC08F03C0EF0EC06F0D3
:100A900069EC08F03C0EC3EC06F0000E356E000E5B
:100AA000036E510E046EE00E6BEC07F0020E0D6E3D
:100AB000E00E9EEC03F0356E0F0E356410D0010E83
:100AC000016E080E44EC07F0540EF6EC07F0000E31
:100AD000326E370E316E320ED5EC07F0DED7010ED6
:100AE000016E080E44EC07F0460EF6EC07F0370EE8
:100AF000F0EC06F0D2D70450D8B405D00150021063
:100B00000310D8A40CD0000E016E000E026E000E71
:100B1000036E1200042AD890033202320132000E12
:100B20000114066E000E0214076EFE0E0314086E0A
:100B3000065007100810D8B40CD0ECD7042A010EC8
:100B40000126000E0222000E0322D8900332023248
:100B50000132000E0114066E000E0214076EFF0E25
:100B60000314086E065007100810D8B406D0E6D754
:100B70000406D89001360236033602AEF9D704A037
:100B8000029ED8900432045003120550D8A4038E5C
:100B900001C001F002C002F003C003F01200CD0E4C
:100BA000106ECC0E116E400E126E2BC009F02CC0D0
:100BB0000AF090EC07F009C00DF00AC00EF00BC06F
:100BC0000FF0A5EC04F00DC01CF00EC01DF00FC01E
:100BD0001EF02AEC04F01CC02DF01DC02EF01EC02B
:100BE0002FF01FC030F02DC02BF02EC02CF02BC0EA
:100BF0002DF02CC02EF02E342E322D322E342E32EB
:100C00002D322D500F015E6F2BC02DF0030E2D16CF
:100C10002D3AF00E2D160F015D51CF0B2D100F0147
:100C20005D6F1200000E0A6E000E096E2BD005C01B
:100C300007F006C008F0095007260A50082207C02E
:100C4000F6FF08C0F7FF0800F5500A0AD8A408D03C
:100C5000364A372A36C001F0000E44EC07F010D0B7
:100C600005C007F006C008F0095007260A50082200
:100C700007C0F6FF08C0F7FF0800F550F6EC07F0D4
:100C8000094A0A2A05C007F006C008F009500726DD
:100C90000A50082207C0F6FF08C0F7FF0800F55009
:100CA0000009D8B41200C3D7CD0E106ECC0E116E51
:100CB000400E126E2BC009F02CC00AF090EC07F029
:100CC00009C00DF00AC00EF00BC00FF0A5EC04F047
:100CD0000DC01CF00EC01DF00FC01EF02AEC04F079
:100CE0001CC02DF01DC02EF01EC02FF01FC030F014
:100CF0002DC02BF02EC02CF02BC02DF02CC02EF0D0
:100D00002E342E322D322E342E322D322D50676E4F
:100D10002BC02DF0030E2D162D3AF00E2D16665019
:100D2000CF0B2D10666E1200000E896E92CF92FFCF
:100D30000F0138512F0B0F01386F000E8A6E935040
:100D4000DF0B936E0F0139511F0B0F01396F000E2E
:100D5000616E8B9294920F013A95000E8C6E9550B5
:100D6000FB0B956E0F013B51FB0B0F013B6F000E10
:100D70008D6E9650050B966E0F013C51050B0F01C1
:100D80003C6FF18E1200326ECC0E666ECC0E0F01EF
:100D90005D6F000E2C6E000E2B6ECFEC05F032C096
:100DA0002BF02C6A54EC06F0000E346E000E336EFD
:100DB0003450800A800F320ED8B4335CD8B00BD0D8
:100DC000210E316E760EE82EFED7312EFCD700D0E4
:100DD000334A342AEDD769EC08F069EC08F01200C8
:100DE000326ECC0E666ECC0E0F015D6F32C02BF0F2
:100DF0002C6ACFEC05F0000E2C6E000E2B6E54EC1E
:100E000006F0000E346E000E336E3450800A800FF0
:100E1000960ED8B4335CD8B00BD0210E316E760E5E
:100E2000E82EFED7312EFCD700D0334A342AEDD736
:100E300069EC08F01200000E0B6E000E0A6E0950ED
:100E40000810D8B41CD0010E0C6E04D0D89008360F
:100E500009360C2A09AEFAD7D8900A360B36085054
:100E6000065C09500758D8A005D00850065E095006
:100E7000075A0A80D890093208320C2EEDD70AC0E2
:100E800006F00BC007F01200036E01C036F0376A9F
:100E90000150400DF3500324046E8B968B848B50CD
:100EA0000F0B8B6E0450F00B8B1080098B6E8B94A4
:100EB0008B8404C002F0023AF00E02168B500F0B26
:100EC00002108B6E8B94040E026E3E0EE82EFED73F
:100ED000022EFCD71200066EBEEC08F00650B2ECF3
:100EE00008F09CEC08F00350B2EC08F09CEC08F021
:100EF0000450B2EC08F09CEC08F0B8EC08F0A30E3B
:100F0000056E550EE82EFED7052EFCD700F0A30E79
:100F1000056E550EE82EFED7052EFCD700F0120008
:100F2000000E0C6E0A50800AF36E800EF35C000E09
:100F3000D8B4095CD8B006D0096C0A1ED8B00A2A09
:100F4000010E0C6E09C001F00AC002F0036A8E0E99
:100F5000046E0CC005F07BEC05F001C009F002C086
:100F60000AF003C00BF0120004500310D8B418D0DC
:100F7000010E056E04D0D89003360436052A04AE5F
:100F8000FAD70350015C04500258D8A004D0035093
:100F9000015E0450025AD89004320332052EF1D774
:100FA00001C001F002C002F01200346ECC0E666E79
:100FB000CC0E0F015D6F15D031C02BF032C02CF07C
:100FC000CFEC05F031C02BF032C02CF054EC06F021
:100FD000210E336E760EE82EFED7332EFCD700D0CE
:100FE00034063466E9D769EC08F01200046E045048
:100FF000F00B026E0438F00B036E8B868B848B50E3
:101000000F0B02108B6E8B948B848B500F0B031085
:101010008B6E8B94040E016E3E0EE82EFED7012ED1
:10102000FCD78B961200BC0E0F015D6F000E0F01F6
:101030005B6F800E0F015C6F000E0F015A6F7F0E09
:101040000F015E6F000E0F015F6F3F0E0F0149171A
:10105000CC0E0F015D6F1200000E036E000E026ECB
:101060000350800A800F640ED8B4025CD8B012001E
:10107000040E016E3E0EE82EFED7012EFCD7024A6A
:10108000032AEED7BC0E666E000E646E800E656E8F
:10109000000E636E7F0E676E000E686E0F01495181
:1010A000E70B08090F01496FCC0E666E1200376A14
:1010B000366A8E0EF66E110EF76E000EF86E09008F
:1010C000F5CF38F0000EF86E060EF76E00011DEF3A
:1010D00005F0CC0E666ECC0E0F015D6F000E2C6E0F
:1010E000000E2B6ECFEC05F0000E2C6E000E2B6E5A
:1010F00054EC06F01200958095826C8A280E6C6E76
:10110000000E6B6E270E6E6E800E6D6E1200000E5E
:101110000F01516FA00E0F01526F0F0153697E90A6
:101120000F01518512008C908C92959095920F0131
:101130003B910F013B9312006BCF01F01F0E011684
:10114000D8B46DB4F9D71200000EBA6EA00EBB6E03
:10115000BC689E92BA8412009CEC08F06B826BA271
:101160001200FDD7026E9CEC08F002C06FFF120067
:101170009CEC08F06B846BA41200FDD79CEC08F08B
:101180006B806BA01200FDD78A0EC06E12007D002E
:020000040020DA
:08000000FFFFFFFFFFFFFFFF00
:020000040030CA
:0E000000FF221F3CFFBF85FF0FC00FE00F4027
:00000001FF
