:04000000E0EF08F035
:1006000000537461727400008B968B948B988B9A54
:100610008B9C8B9E949694949498949A949C949E7C
:10062000B5EC08F08296828482500F0B3009826EFE
:100630008294210E056E760EE82EFED7052EFCD78D
:1006400000D0828482500F0B3009826E8294210E7A
:10065000056E760EE82EFED7052EFCD700D08284DC
:1006600082500F0B3009826E8294210E056E760E39
:10067000E82EFED7052EFCD700D0828482500F0BC7
:100680002009826E8294210E056E760EE82EFED72A
:10069000052EFCD700D0828482500F0B2009826E79
:1006A0008294828482500F0B8009826E8294210E84
:1006B000056E760EE82EFED7052EFCD700D082847C
:1006C00082500F0B826E8294828482500F0BF0094D
:1006D000826E8294210E056E760EE82EFED7052ED0
:1006E000FCD700D0828482500F0B826E8294828469
:1006F00082500F0B1009826E8294210E056E760EC9
:10070000E82EFED7052EFCD700D0828482500F0B36
:10071000826E8294828482500F0B6009826E829472
:10072000210E056E760EE82EFED7052EFCD700D0E2
:10073000000E016E000ED5EC07F01200136E000ED5
:10074000126E000E116E5AEC09F013504EEC09F0C7
:1007500038EC09F00D504EEC09F048EC09F0132884
:100760004EEC09F038EC09F06B8638EC09F06FCFED
:1007700012F06B9A6B8838EC09F06B8638EC09F054
:100780006FCF11F06B8A6B8838EC09F054EC09F0EC
:100790001250156E146A11501424146E000E152098
:1007A000156E010E016E000ED5EC07F014C006F0B8
:1007B00015C007F0000E096E640E086EACEC07F071
:1007C0000650300F66EC08F0010E016E010ED5ECFC
:1007D00007F0000E046E640E036E14C001F015C025
:1007E00002F045EC08F001C006F002C007F0000E70
:1007F000096E0A0E086EACEC07F00650300F66EC7E
:1008000008F0010E016E020ED5EC07F0000E046E2A
:10081000640E036E14C001F015C002F045EC08F040
:1008200001C00FF002C010F00FC001F010C002F0C4
:10083000000E046E0A0E036E45EC08F00150300FF6
:1008400066EC08F01200E82EFED70E2EFCD700F062
:10085000A30E0E6E550EE82EFED70E2EFCD700F01E
:1008600012001EC020F0216A226A1D34203601E3E6
:10087000218020502A6E2A6609D0000E1C6E000EC0
:100880001D6E000E1E6E000E1F6E1200170E206EE3
:100890001CC021F01DC022F01EC023F02028246EB1
:1008A00004D0D890233222322132242EFAD721507C
:1008B000256E1D8EFF0E1C16FF0E1D16000E1E1639
:1008C0001C50266E1D50276E1E50286E296A8E0EF3
:1008D0002A5E2AAE19D02A50800A206EF10E800AB4
:1008E000205CD8B009D0000E1C6E000E1D6E000EEC
:1008F0001E6E000E1F6E1200D89029322832273249
:1009000026322A3EF9D714D0170E2A640FD0000ED3
:100910001C6E000E1D6E000E1E6E000E1F6E12006D
:10092000D89026362736283629362A062A66F8D75A
:100930002550D8B408D0291E281E271E266C000E6C
:1009400027222822292226C01CF027C01DF028C0FB
:100950001EF029C01FF012000FC013F0146A156AB0
:100960000E34133601E314801350196E196607D044
:10097000000E0D6E000E0E6E000E0F6E120012C0F5
:1009800013F0146A156A1134133601E314801350FE
:100990001B6E1B6607D0000E0D6E000E0E6E000E55
:1009A0000F6E12001B507B0F19260FC01BF0125048
:1009B0001B1A800E1B160E8E118EFF0E1016FF0EC8
:1009C0001116000E1216000E166E000E176E000E97
:1009D000186E070E1A6E0DA006D010501626115074
:1009E000172212501822D8900F320E320D32D890A2
:1009F0001036113612361A2EEED7090E1A6E0DA0C9
:100A000006D0105016261150172212501822D890D6
:100A10000F320E320D32D8901832173216321A2E8B
:100A2000EED716C001F017C002F018C003F019C0CD
:100A300004F01BC005F089EC05F001C00DF002C008
:100A40000EF003C00FF012007DEC07F004EC03F091
:100A5000000E016E000ED5EC07F02FEC09F001EC52
:100A600009F060EC09F09CEC08F040EC09F0000E95
:100A70002C6E3C0E2B6E77EC06F019EC09F0000E94
:100A80002C6E3C0E2B6E77EC06F0CBEC08F00DECE8
:100A900009F0000E2C6E3C0E2B6E3DEC07F025ECA1
:100AA00009F0000E2C6E3C0E2B6E3DEC07F0060E8E
:100AB000066E010E056EBAEC06F0000E036E510EC6
:100AC000046EE00EFCEC07F0020E0D6EE00E9EECE4
:100AD00003F0010E016E050ED5EC07F0000E026E5C
:100AE000000E016EF2EC08F00150FCEC06F083EC15
:100AF00008F00009D8B409D0010E016E080ED5EC3B
:100B000007F0540E66EC08F0D8D7460E66EC08F0F5
:100B1000D4D70450D8B405D0015002100310D8A483
:100B20000CD0000E016E000E026E000E036E12005D
:100B3000042AD890033202320132000E0114066EEC
:100B4000000E0214076EFE0E0314086E0650071006
:100B50000810D8B40CD0ECD7042A010E0126000EE0
:100B60000222000E0322D890033202320132000E1C
:100B70000114066E000E0214076EFF0E0314086EB9
:100B8000065007100810D8B406D0E6D70406D8904F
:100B900001360236033602AEF9D704A0029ED89081
:100BA0000432045003120550D8A4038E01C001F092
:100BB00002C002F003C003F01200000E0C6E0A50D7
:100BC000800AF36E800EF35C000ED8B4095CD8B0D6
:100BD00006D0096C0A1ED8B00A2A010E0C6E085005
:100BE000800AF36E800EF35C000ED8B4075CD8B0B8
:100BF00006D0076C081ED8B0082A010E0C1A000E89
:100C00000E6E000E0D6E0A500910D8B41CD0010EE5
:100C10000B6E04D0D89009360A360B2A0AAEFAD7E2
:100C2000D8900D360E360950075C0A500858D8A0E7
:100C300005D00950075E0A50085A0D80D8900A3234
:100C400009320B2EEDD70C50D8B404D00D6C0E1E0B
:100C5000D8B00E2A0DC007F00EC008F01200000E2A
:100C6000066E0250800AF36E800EF35C000ED8B45C
:100C7000015CD8B006D0016C021ED8B0022A010E69
:100C8000066E0450800AF36E800EF35C000ED8B43A
:100C9000035CD8B004D0036C041ED8B0042A0450FE
:100CA0000310D8B418D0010E056E04D0D8900336C6
:100CB0000436052A04AEFAD70350015C04500258EA
:100CC000D8A004D00350015E0450025AD8900432D8
:100CD0000332052EF1D70650D8B404D0016C021EA1
:100CE000D8B0022A01C001F002C002F01200CD0EFD
:100CF000106ECC0E116E400E126E2BC009F02CC07F
:100D00000AF021EC08F009C00DF00AC00EF00BC08B
:100D10000FF0ACEC04F00DC01CF00EC01DF00FC0C5
:100D20001EF031EC04F01CC02DF01DC02EF01EC0D2
:100D30002FF01FC030F02DC02BF02EC02CF02BC098
:100D40002DF02CC02EF02E342E322D322E342E3299
:100D50002D322D500F015E6F2BC02DF0030E2D167E
:100D60002D3AF00E2D160F015D51CF0B2D100F01F6
:100D70005D6F1200000E0A6E000E096E2BD005C0CA
:100D800007F006C008F0095007260A50082207C0DD
:100D9000F6FF08C0F7FF0800F5500A0AD8A408D0EB
:100DA000314A322A31C001F0000ED5EC07F010D0E4
:100DB00005C007F006C008F0095007260A500822AF
:100DC00007C0F6FF08C0F7FF0800F55066EC08F012
:100DD000094A0A2A05C007F006C008F0095007268C
:100DE0000A50082207C0F6FF08C0F7FF0800F550B8
:100DF0000009D8B41200C3D7116E11C007F0086AF9
:100E0000000E0A6E640E096EDDEC05F00750300F1F
:100E100066EC08F0000E046E640E036E11C001F063
:100E2000026A2FEC06F001C007F002C008F0000EC5
:100E30000A6E0A0E096EDDEC05F00750300F66EC05
:100E400008F0000E046E640E036E11C001F0026A19
:100E50002FEC06F001C00FF002C010F00FC001F03F
:100E600010C002F0000E046E0A0E036E2FEC06F0A6
:100E70000150300F66EC08F01200CD0E106ECC0E53
:100E8000116E400E126E2BC009F02CC00AF021EC3E
:100E900008F009C00DF00AC00EF00BC00FF0ACEC6A
:100EA00004F00DC01CF00EC01DF00FC01EF031ECA0
:100EB00004F01CC02DF01DC02EF01EC02FF01FC06E
:100EC00030F02DC02BF02EC02CF02BC02DF02CC0FC
:100ED0002EF02E342E322D322E342E322D322D5035
:100EE000676E2BC02DF0030E2D162D3AF00E2D1629
:100EF0006650CF0B2D10666E1200000E896E92CFD9
:100F000092FF0F0138512F0B0F01386F000E8A6EC0
:100F10009350DF0B936E0F0139511F0B0F01396F87
:100F2000000E616E8B9294920F013A95000E8C6EBA
:100F30009550FB0B956E0F013B51FB0B0F013B6F67
:100F4000000E8D6E9650050B966E0F013C51050BF1
:100F50000F013C6FF18E1200000E0B6E000E0A6E38
:100F600009500810D8B41CD0010E0C6E04D0D890D3
:100F7000083609360C2A09AEFAD7D8900A360B364D
:100F80000850065C09500758D8A005D00850065EE6
:100F90000950075A0A80D890093208320C2EEDD732
:100FA0000AC006F00BC007F01200036E01C031F05A
:100FB000326A0150400DF3500324046E8B968B84EB
:100FC0008B500F0B8B6E0450F00B8B1080098B6EC7
:100FD0008B948B8404C002F0023AF00E02168B5000
:100FE0000F0B02108B6E8B94040E026E3E0EE82ED9
:100FF000FED7022EFCD71200066E5AEC09F00650FE
:101000004EEC09F038EC09F003504EEC09F038ECE6
:1010100009F004504EEC09F038EC09F054EC09F0FA
:10102000A30E056E550EE82EFED7052EFCD700F058
:10103000A30E056E550EE82EFED7052EFCD700F048
:101040001200000E0C6E0A50800AF36E800EF35CE4
:10105000000ED8B4095CD8B006D0096C0A1ED8B00E
:101060000A2A010E0C6E09C001F00AC002F0036AE0
:101070008E0E046E0CC005F089EC05F001C009F07D
:1010800002C00AF003C00BF0120004500310D8B4E1
:1010900018D0010E056E04D0D89003360436052A08
:1010A00004AEFAD70350015C04500258D8A004D013
:1010B0000350015E0450025AD89004320332052EC8
:1010C000F1D701C001F002C002F01200046E04501A
:1010D000F00B026E0438F00B036E8B868B848B5002
:1010E0000F0B02108B6E8B948B848B500F0B0310A5
:1010F0008B6E8B94040E016E3E0EE82EFED7012EF1
:10110000FCD78B961200000E066E3350036E046AF5
:10111000000E026E000E016EF2EC08F00250800A22
:10112000056E0350015C0450800A0558D8B002D007
:10113000010E066E06501200BC0E0F015D6F000E10
:101140000F015B6F800E0F015C6F000E0F015A6F75
:101150007F0E0F015E6F000E0F015F6F3F0E0F01DC
:1011600049174C0E0F015D6F1200000E036E000E4A
:10117000026E0350800A800F640ED8B4025CD8B0AF
:101180001200040E016E3E0EE82EFED7012EFCD793
:10119000024A032AEED7BC0E666E000E646E800E05
:1011A000656E000E636E7F0E676E000E686E0F0137
:1011B0004951E70B08090F01496F4C0E666E12008A
:1011C000326A316AC60EF66E120EF76E000EF86EB7
:1011D0000900F5CF33F0000EF86E060EF76E000131
:1011E00024EF05F0000EC26E0144E846FC0BC26E0F
:1011F000C280C282C2B2FED7C290C3CF01F0026ADF
:101200001200958095826C8A280E6C6E000E6B6EB3
:10121000270E6E6E800E6D6E1200000E0F01516F64
:10122000A00E0F01526F0F0153697E900F0151857F
:101230001200000E2C6E280E2B6E77EC06F00F01BC
:101240005D51800A0F015D6F1200000E2C6E280E9A
:101250002B6E3DEC07F06650800A666E12008C9093
:101260008C92959095920F013B910F013B93120048
:101270006BCF01F01F0E0116D8B46DB4F9D7120070
:10128000000EBA6EA00EBB6EBC689E92BA841200AD
:1012900038EC09F06B826BA21200FDD7026E38ECBD
:1012A00009F002C06FFF120038EC09F06B846BA4E8
:1012B0001200FDD738EC09F06B806BA01200FDD74F
:0812C0008A0EC06E12007D00D1
:020000040020DA
:08000000FFFFFFFFFFFFFFFF00
:020000040030CA
:0E000000FF221F3CFFBF85FF0FC00FE00F4027
:00000001FF
