:0400000021EF3CF0C0
:10783C008A0EC06E1200336A326A0001D3EF3DF03B
:10784C00000EBA6EA00EBB6EBC689E92BA8412007B
:10785C00000E2C6E280E2B6E50EC3DF06650800AFC
:10786C00666E1200000E2C6E280E2B6E90EC3DF006
:10787C000F015D51800A0F015D6F1200000E0F01A8
:10788C00516FA00E0F01526F0F0153697E900F01C3
:10789C0051851200000EC26E0144E846FC0BC26E0C
:1078AC00C280C282C2B2FED7C290C3CF01F0026ABC
:1078BC001200BC0E666E000E646E800E656E000EBD
:1078CC00636E7F0E676E000E686E0F014951E70BF9
:1078DC0008090F01496F4C0E666E1200000E036E04
:1078EC00000E026E0350800A800F640ED8B4025C46
:1078FC00D8B01200040E016E3E0EE82EFED7012EFB
:10790C00FCD7024A032AEED7000E036E000E026E5D
:10791C00000E016E50EC3CF00250800AF36E800EAB
:10792C00F35C410ED8B4015CD8B002D0010E036EEA
:10793C0003501200BC0E0F015D6F000E0F015B6F48
:10794C00800E0F015C6F000E0F015A6F7F0E0F013E
:10795C005E6F000E0F015F6F3F0E0F0149174C0E4B
:10796C000F015D6F1200046E0450F00B026E0438B0
:10797C00F00B036E8B868B848B500F0B02108B6E6F
:10798C008B948B848B500F0B03108B6E8B94040E8B
:10799C00016E3E0EE82EFED7012EFCD78B96120000
:1079AC00000E0C6E0A50800AF36E800EF35C000E13
:1079BC00D8B4095CD8B006D0096C0A1ED8B00A2A13
:1079CC00010E0C6E09C001F00AC002F0036A8E0EA3
:1079DC00046E0CC005F01FEC3EF001C009F002C0B3
:1079EC000AF003C00BF01200036E01C032F0336AD0
:1079FC000150400DF3500324046E8B968B848B50F6
:107A0C000F0B8B6E0450F00B8B1080098B6E8B94CC
:107A1C008B8404C002F0023AF00E02168B500F0B4E
:107A2C0002108B6E8B94040E026E3E0EE82EFED767
:107A3C00022EFCD71200000E896E92CF92FF0F011E
:107A4C0038512F0B0F01386F000E8A6E9350DF0BDD
:107A5C00936E0F0139511F0B0F01396F000E616EC0
:107A6C008B9294920F013A95000E8C6E9550FB0BF5
:107A7C00956E0F013B51FB0B0F013B6F000E8D6E92
:107A8C009650050B966E0F013C51050B0F013C6F88
:107A9C00F18E1200CD0E106ECC0E116E400E126EC9
:107AAC002BC009F02CC00AF0D6EC3CF009C00DF04C
:107ABC000AC00EF00BC00FF073EC3EF00DC01CF0C2
:107ACC000EC01DF00FC01EF0EBEC3EF01CC02DF0F4
:107ADC001DC02EF01EC02FF01FC030F02DC02BF09B
:107AEC002EC02CF02BC02DF02CC02EF02E342E32AC
:107AFC002D322E342E322D322D50676E2BC02DF0A0
:107B0C00030E2D162D3AF00E2D166650CF0B2D10A0
:107B1C00666E1200CD0E106ECC0E116E400E126EF3
:107B2C002BC009F02CC00AF0D6EC3CF009C00DF0CB
:107B3C000AC00EF00BC00FF073EC3EF00DC01CF041
:107B4C000EC01DF00FC01EF0EBEC3EF01CC02DF073
:107B5C001DC02EF01EC02FF01FC030F02DC02BF01A
:107B6C002EC02CF02BC02DF02CC02EF02E342E322B
:107B7C002D322E342E322D322D500F015E6F2BC034
:107B8C002DF0030E2D162D3AF00E2D160F015D5112
:107B9C00CF0B2D100F015D6F120021EC3DF0A0EC0E
:107BAC003CF026EC3CF0000E2C6E3C0E2B6E90EC58
:107BBC003DF038EC3CF0000E2C6E3C0E2B6E90EC35
:107BCC003DF05FEC3CF044EC3CF0000E2C6E3C0EB7
:107BDC002B6E50EC3DF02EEC3CF0000E2C6E3C0E5F
:107BEC002B6E50EC3DF066EC3FF0000E016E000E7B
:107BFC00FAEC3CF0680EB9EC3CF01EEC3CF0010EDB
:107C0C00016E000EFAEC3CF08AEC3CF00009D8B4A2
:107C1C0004D0540EB9EC3CF003D0460EB9EC3CF059
:107C2C00A30E316E550EE82EFED7312EFCD700F088
:107C3C00E6D70450D8B405D0015002100310D8A4D4
:107C4C000CD0000E016E000E026E000E036E1200C0
:107C5C00042AD890033202320132000E0114066E4F
:107C6C00000E0214076EFE0E0314086E0650071069
:107C7C000810D8B40CD0ECD7042A010E0126000E43
:107C8C000222000E0322D890033202320132000E7F
:107C9C000114066E000E0214076EFF0E0314086E1C
:107CAC00065007100810D8B406D0E6D70406D890B2
:107CBC0001360236033602AEF9D704A0029ED890E4
:107CCC000432045003120550D8A4038E01C001F0F5
:107CDC0002C002F003C003F012000FC013F0146ACC
:107CEC00156A0E34133601E314801350196E19669D
:107CFC0007D0000E0D6E000E0E6E000E0F6E1200F1
:107D0C0012C013F0146A156A1134133601E314808F
:107D1C0013501B6E1B6607D0000E0D6E000E0E6E00
:107D2C00000E0F6E12001B507B0F19260FC01BF09C
:107D3C0012501B1A800E1B160E8E118EFF0E101673
:107D4C00FF0E1116000E1216000E166E000E176E98
:107D5C00000E186E070E1A6E0DA006D010501626C7
:107D6C001150172212501822D8900F320E320D32A9
:107D7C00D8901036113612361A2EEED7090E1A6E0E
:107D8C000DA006D010501626115017221250182292
:107D9C00D8900F320E320D32D8901832173216326C
:107DAC001A2EEED716C001F017C002F018C003F05F
:107DBC0019C004F01BC005F01FEC3EF001C00DF023
:107DCC0002C00EF003C00FF012001EC020F0216A9A
:107DDC00226A1D34203601E3218020502A6E2A6647
:107DEC0009D0000E1C6E000E1D6E000E1E6E000ED5
:107DFC001F6E1200170E206E1CC021F01DC022F049
:107E0C001EC023F02028246E04D0D89023322232B6
:107E1C002132242EFAD72150256E1D8EFF0E1C16F2
:107E2C00FF0E1D16000E1E161C50266E1D50276EC2
:107E3C001E50286E296A8E0E2A5E2AAE19D02A5040
:107E4C00800A206EF10E800A205CD8B009D0000E9A
:107E5C001C6E000E1D6E000E1E6E000E1F6E1200AC
:107E6C00D89029322832273226322A3EF9D714D01C
:107E7C00170E2A640FD0000E1C6E000E1D6E000E25
:107E8C001E6E000E1F6E1200D8902636273628362E
:107E9C0029362A062A66F8D72550D8B408D0291EC8
:107EAC00281E271E266C000E27222822292226C0D7
:107EBC001CF027C01DF028C01EF029C01FF01200B6
:107ECC008B968B948B988B9A8B9C8B9E949694947C
:107EDC009498949A949C949E74EC3CF08296828430
:107EEC0082500F0B3009826E8294210E056E760E35
:107EFC00E82EFED7052EFCD700D0828482500F0BC3
:107F0C003009826E8294210E056E760EE82EFED715
:107F1C00052EFCD700D0828482500F0B3009826E64
:107F2C008294210E056E760EE82EFED7052EFCD718
:107F3C0000D0828482500F0B2009826E8294210E15
:107F4C00056E760EE82EFED7052EFCD700D0828467
:107F5C0082500F0B2009826E8294828482500F0B08
:107F6C008009826E8294210E056E760EE82EFED765
:107F7C00052EFCD700D0828482500F0B826E829427
:107F8C00828482500F0BF009826E8294210E056E52
:107F9C00760EE82EFED7052EFCD700D082848250B8
:107FAC000F0B826E8294828482500F0B1009826EAA
:107FBC008294210E056E760EE82EFED7052EFCD788
:107FCC0000D0828482500F0B826E82948284825005
:107FDC000F0B6009826E8294210E056E760EE82ED0
:107FEC00FED7052EFCD700D0000E016E000EFAEC69
:047FFC003CF0120043
:020000040020DA
:08000000FFFFFFFFFFFFFFFF00
:020000040030CA
:0E000000FF221F3CFFBF85FF0FC00FE00F4027
:00000001FF
