:0400000054EF3EF08B
:107CA800176A166A000185EF3EF071EC3EF06B80B2
:107CB8006BA01200FDD771EC3EF06B846BA4120030
:107CC800FDD7026E71EC3EF002C06FFF120071EC3E
:107CD8003EF06B826BA21200FDD76BCF01F01F0E36
:107CE8000116D8B46DB4F9D71200958095826C8AC4
:107CF800280E6C6E000E6B6E270E6E6E800E6D6E0B
:107D08001200D4EC3EF079EC3EF0000E036E510EFA
:107D1800046EE00EF8EC3EF0020E0D6EE00E6DEC17
:107D28003FF0F3D7046E0450F00B026E0438F00BEA
:107D3800036E8B868B848B500F0B02108B6E8B948B
:107D48008B848B500F0B03108B6E8B94040E016E7B
:107D58003E0EE82EFED7012EFCD78B96120004505B
:107D68000310D8B418D0010E056E04D0D89003368D
:107D78000436052A04AEFAD70350015C04500258B1
:107D8800D8A004D00350015E0450025AD89004329F
:107D98000332052EF1D701C001F002C002F0120033
:107DA800000E896E000E926E000E0F01386F000EE5
:107DB8008A6E060E936E000E0F01396F000E8B6EE1
:107DC800000E946E000E0F013A6F000E8C6E000EBE
:107DD800956E000E0F013B6F000E8D6E000E966EB5
:107DE800000E0F013C6F1200066E59EC3EF0065073
:107DF80065EC3EF071EC3EF0035065EC3EF071EC42
:107E08003EF0045065EC3EF071EC3EF05FEC3EF065
:107E1800A30E056E550EE82EFED7052EFCD700F0F2
:107E2800A30E056E550EE82EFED7052EFCD700F0E2
:107E38001200036E01C016F0176A0150400DF3508E
:107E48000324046E8B968B848B500F0B8B6E04501F
:107E5800F00B8B1080098B6E8B948B8404C002F01E
:107E6800023AF00E02168B500F0B02108B6E8B9499
:107E7800040E026E3E0EE82EFED7022EFCD712002C
:107E8800000E0B6E000E0A6E09500810D8B41CD0F4
:107E9800010E0C6E04D0D890083609360C2A09AEAB
:107EA800FAD7D8900A360B360850065C095007589E
:107EB800D8A005D00850065E0950075A0A80D89005
:107EC800093208320C2EEDD70AC006F00BC007F0B5
:107ED8001200136E000E126E000E116E59EC3EF079
:107EE800135065EC3EF071EC3EF00D5065EC3EF041
:107EF8006BEC3EF0132865EC3EF071EC3EF06B86BF
:107F080071EC3EF06FCF12F06B9A6B8871EC3EF01B
:107F18006B8671EC3EF06FCF11F06B8A6B8871EC59
:107F28003EF05FEC3EF01250156E146A11501424A6
:107F3800146E000E1520156E010E016E000E1DEC5C
:107F48003FF014C006F015C007F0000E096E640E6D
:107F5800086E44EC3FF00650300F96EC3EF0010EF0
:107F6800016E010E1DEC3FF0000E046E640E036EF0
:107F780014C001F015C002F0B3EC3EF001C006F0E9
:107F880002C007F0000E096E0A0E086E44EC3FF0BE
:107F98000650300F96EC3EF0010E016E020E1DECFD
:107FA8003FF0000E046E640E036E14C001F015C09D
:107FB80002F0B3EC3EF001C00FF002C010F00FC0A9
:107FC80001F010C002F0000E046E0A0E036EB3EC4E
:107FD8003EF00150300F96EC3EF01200E82EFED72E
:107FE8000E2EFCD700F0A30E0E6E550EE82EFED70F
:087FF8000E2EFCD700F0120070
:020000040020DA
:08000000FFFFFFFFFFFFFFFF00
:020000040030CA
:0E000000FF221F3CFFBF85FF0FC00FE00F4027
:00000001FF
