:04000000E4EF3EF0FB
:107DC800076A066A00011CEF3FF0000E036E000E02
:107DD800026E0350800A800F640ED8B4025CD8B0DB
:107DE8001200040E016E3E0EE82EFED7012EFCD7BF
:107DF800024A032AEED7046E0450F00B026E0438D0
:107E0800F00B036E8B868B848C500F0B02108C6EDC
:107E18008B948B848C500F0B03108C6E8B94040EF8
:107E2800016E3E0EE82EFED7012EFCD78B9612006F
:107E380066EC3FF0000E016E000E3FEC3FF0310E95
:107E4800FFEC3EF0000E016E010E3FEC3FF0390EE4
:107E5800FFEC3EF0000E016E020E3FEC3FF0360ED6
:107E6800FFEC3EF0000E016E030E3FEC3FF0310ECA
:107E7800FFEC3EF0FFD7036E01C006F0076A015021
:107E8800400DF3500324046E8B968B848C500F0B9B
:107E98008C6E0450F00B8C1080098C6E8B948B8444
:107EA80004C002F0023AF00E02168C500F0B0210BA
:107EB8008C6E8B94040E026E3E0EE82EFED7022EB8
:107EC800FCD712008B968B948C988C9A8C9C8C9EE9
:107ED800949694949598959A959C959EE9EC3EF085
:107EE8008296828483500F0B3009836E8294210E10
:107EF800056E760EE82EFED7052EFCD700D08284BC
:107F080083500F0B3009836E8294210E056E760E16
:107F1800E82EFED7052EFCD700D0828483500F0BA5
:107F28003009836E8294210E056E760EE82EFED7F8
:107F3800052EFCD700D0828483500F0B2009836E56
:107F48008294210E056E760EE82EFED7052EFCD7FC
:107F580000D0828483500F0B2009836E8294828420
:107F680083500F0B8009836E8294210E056E760E66
:107F7800E82EFED7052EFCD700D0828483500F0B45
:107F8800836E8294828483500F0BF009836E8294EF
:107F9800210E056E760EE82EFED7052EFCD700D0F2
:107FA800828483500F0B836E8294828483500F0BDC
:107FB8001009836E8294210E056E760EE82EFED788
:107FC800052EFCD700D0828483500F0B836E8294D9
:107FD800828483500F0B6009836E8294210E056E94
:107FE800760EE82EFED7052EFCD700D0000E016EC7
:087FF800000E3FEC3FF0120007
:020000040020DA
:08000000FFFFFFFFFFFFFFFF00
:020000040030CA
:0E000000FF221F3CFFBF85FF0FC00FE00F4027
:00000001FF
