:04000000ACEF07F06A
:1006000000537461727400008B968B948B988B9A54
:100610008B9C8B9E949694949498949A949C949E7C
:1006200081EC07F08296828482500F0B3009826E33
:100630008294210E056E760EE82EFED7052EFCD78D
:1006400000D0828482500F0B3009826E8294210E7A
:10065000056E760EE82EFED7052EFCD700D08284DC
:1006600082500F0B3009826E8294210E056E760E39
:10067000E82EFED7052EFCD700D0828482500F0BC7
:100680002009826E8294210E056E760EE82EFED72A
:10069000052EFCD700D0828482500F0B2009826E79
:1006A0008294828482500F0B8009826E8294210E84
:1006B000056E760EE82EFED7052EFCD700D082847C
:1006C00082500F0B826E8294828482500F0BF0094D
:1006D000826E8294210E056E760EE82EFED7052ED0
:1006E000FCD700D0828482500F0B826E8294828469
:1006F00082500F0B1009826E8294210E056E760EC9
:10070000E82EFED7052EFCD700D0828482500F0B36
:10071000826E8294828482500F0B6009826E829472
:10072000210E056E760EE82EFED7052EFCD700D0E2
:10073000000E016E000E00EC07F012001EC020F04B
:10074000216A226A1D34203601E3218020502A6E5E
:100750002A6609D0000E1C6E000E1D6E000E1E6E65
:10076000000E1F6E1200170E206E1CC021F01DC05F
:1007700022F01EC023F02028246E04D0D89023320B
:1007800022322132242EFAD72150256E1D8EFF0EE3
:100790001C16FF0E1D16000E1E161C50266E1D5038
:1007A000276E1E50286E296A8E0E2A5E2AAE19D038
:1007B0002A50800A206EF10E800A205CD8B009D041
:1007C000000E1C6E000E1D6E000E1E6E000E1F6EC3
:1007D0001200D89029322832273226322A3EF9D701
:1007E00014D0170E2A640FD0000E1C6E000E1D6E62
:1007F000000E1E6E000E1F6E1200D8902636273691
:10080000283629362A062A66F8D72550D8B408D0C3
:10081000291E281E271E266C000E27222822292288
:1008200026C01CF027C01DF028C01EF029C01FF0F4
:1008300012000FC013F0146A156A0E34133601E368
:1008400014801350196E196607D0000E0D6E000E3D
:100850000E6E000E0F6E120012C013F0146A156AAD
:100860001134133601E3148013501B6E1B6607D03E
:10087000000E0D6E000E0E6E000E0F6E12001B505D
:100880007B0F19260FC01BF012501B1A800E1B166F
:100890000E8E118EFF0E1016FF0E1116000E121680
:1008A000000E166E000E176E000E186E070E1A6EF2
:1008B0000DA006D0105016261150172212501822E3
:1008C000D8900F320E320D32D890103611361236C3
:1008D0001A2EEED7090E1A6E0DA006D0105016264D
:1008E0001150172212501822D8900F320E320D32AA
:1008F000D8901832173216321A2EEED716C001F0E1
:1009000017C002F018C003F019C004F01BC005F0B6
:1009100091EC04F001C00DF002C00EF003C00FF026
:1009200012000450D8B405D0015002100310D8A40E
:100930000CD0000E016E000E026E000E036E12004F
:10094000042AD890033202320132000E0114066EDE
:10095000000E0214076EFE0E0314086E06500710F8
:100960000810D8B40CD0ECD7042A010E0126000ED2
:100970000222000E0322D890033202320132000E0E
:100980000114066E000E0214076EFF0E0314086EAB
:10099000065007100810D8B406D0E6D70406D89041
:1009A00001360236033602AEF9D704A0029ED89073
:1009B0000432045003120550D8A4038E01C001F084
:1009C00002C002F003C003F01200000E0C6E0A50C9
:1009D000800AF36E800EF35C000ED8B4095CD8B0C8
:1009E00006D0096C0A1ED8B00A2A010E0C6E0850F7
:1009F000800AF36E800EF35C000ED8B4075CD8B0AA
:100A000006D0076C081ED8B0082A010E0C1A000E7A
:100A10000E6E000E0D6E0A500910D8B41CD0010ED7
:100A20000B6E04D0D89009360A360B2A0AAEFAD7D4
:100A3000D8900D360E360950075C0A500858D8A0D9
:100A400005D00950075E0A50085A0D80D8900A3226
:100A500009320B2EEDD70C50D8B404D00D6C0E1EFD
:100A6000D8B00E2A0DC007F00EC008F01200D1EC6D
:100A700006F068EC07F000EC08F097EC07F0EBEC00
:100A800007F0BEEC07F004EC03F0000E016E000E60
:100A900000EC07F0F7EC07F0DFEC07F00CEC08F0E7
:100AA000060E066E010E056E0EEC06F0000E346E9C
:100AB000000E336ED0EC07F0809608EC08F0CF50B3
:100AC000326E316ACE503124076E000E3220086E2D
:100AD000000E0A6E3A0E096EE5EC04F007C033F022
:100AE00008C034F0010E016E000E00EC07F0335028
:100AF00050EC06F0A30E316E550EE82EFED7312EC7
:100B0000FCD700F0D7D7000E066E0250800AF36EB5
:100B1000800EF35C000ED8B4015CD8B006D0016C36
:100B2000021ED8B0022A010E066E0450800AF36E2F
:100B3000800EF35C000ED8B4035CD8B004D0036C14
:100B4000041ED8B0042A04500310D8B418D0010EE3
:100B5000056E04D0D89003360436052A04AEFAD7C1
:100B60000350015C04500258D8A004D00350015E29
:100B70000450025AD89004320332052EF1D70650A1
:100B8000D8B404D0016C021ED8B0022A01C001F012
:100B900002C002F01200CD0E106ECC0E116E400E8F
:100BA000126E2BC009F02CC00AF027EC07F009C028
:100BB0000DF00AC00EF00BC00FF019EC04F00DC0E0
:100BC0001CF00EC01DF00FC01EF09EEC03F01CC008
:100BD0002DF01DC02EF01EC02FF01FC030F02DC014
:100BE0002BF02EC02CF02BC02DF02CC02EF02E346C
:100BF0002E322D322E342E322D322D500F015E6FBB
:100C00002BC02DF0030E2D162D3AF00E2D160F01D0
:100C10005D51CF0B2D100F015D6F1200000E0A6E9B
:100C2000000E096E2BD005C007F006C008F0095071
:100C300007260A50082207C0F6FF08C0F7FF080081
:100C4000F5500A0AD8A408D0354A362A35C001F032
:100C5000000E00EC07F010D005C007F006C008F049
:100C6000095007260A50082207C0F6FF08C0F7FF00
:100C70000800F5504BEC07F0094A0A2A05C007F0B6
:100C800006C008F0095007260A50082207C0F6FFE0
:100C900008C0F7FF0800F5500009D8B41200C3D708
:100CA000116E11C007F0086A000E0A6E640E096E1C
:100CB000E5EC04F00750300F4BEC07F0000E046E2B
:100CC000640E036E11C001F0026A83EC05F001C0EE
:100CD00007F002C008F0000E0A6E0A0E096EE5EC7D
:100CE00004F00750300F4BEC07F0000E046E640E5A
:100CF000036E11C001F0026A83EC05F001C00FF031
:100D000002C010F00FC001F010C002F0000E046E1F
:100D10000A0E036E83EC05F00150300F4BEC07F028
:100D20001200CD0E106ECC0E116E400E126E2BC046
:100D300009F02CC00AF027EC07F009C00DF00AC03A
:100D40000EF00BC00FF019EC04F00DC01CF00EC03B
:100D50001DF00FC01EF09EEC03F01CC02DF01DC056
:100D60002EF01EC02FF01FC030F02DC02BF02EC073
:100D70002CF02BC02DF02CC02EF02E342E322D3224
:100D80002E342E322D322D50676E2BC02DF0030ED7
:100D90002D162D3AF00E2D166650CF0B2D10666EC7
:100DA0001200000E896E92CF92FF0F0138512F0B67
:100DB0000F01386F000E8A6E9350DF0B936E0F0198
:100DC00039511F0B0F01396F000E616E8B92949297
:100DD0000F013A95000E8C6E9550FB0B956E0F012E
:100DE0003B51FB0B0F013B6F000E8D6E9650050BB8
:100DF000966E0F013C51050B0F013C6FF18E1200F6
:100E0000036E01C035F0366A0150400DF3500324E3
:100E1000046E8B968B848B500F0B8B6E0450F00BF3
:100E20008B1080098B6E8B948B8404C002F0023A85
:100E3000F00E02168B500F0B02108B6E8B94040E6B
:100E4000026E3E0EE82EFED7022EFCD71200000ED8
:100E50000C6E0A50800AF36E800EF35C000ED8B45C
:100E6000095CD8B006D0096C0A1ED8B00A2A010E57
:100E70000C6E09C001F00AC002F0036A8E0E046E07
:100E80000CC005F091EC04F001C009F002C00AF0BA
:100E900003C00BF01200046E0450F00B026E043815
:100EA000F00B036E8B868B848B500F0B02108B6EB6
:100EB0008B948B848B500F0B03108B6E8B94040ED2
:100EC000016E3E0EE82EFED7012EFCD78B96120047
:100ED000BC0E0F015D6F000E0F015B6F800E0F01E6
:100EE0005C6F000E0F015A6F7F0E0F015E6F000ED8
:100EF0000F015F6F3F0E0F014917CC0E0F015D6FA1
:100F00001200000E036E000E026E0350800A800F66
:100F1000640ED8B4025CD8B01200040E016E3E0E0E
:100F2000E82EFED7012EFCD7024A032AEED7BC0ECC
:100F3000666E000E646E800E656E000E636E7F0E30
:100F4000676E000E686E0F014951E70B08090F012B
:100F5000496FCC0E666E1200366A356A1E0EF66E4A
:100F6000100EF76E000EF86E0900F5CF37F0000E88
:100F7000F86E060EF76E000137EF05F0CC0E666EC8
:100F8000CC0E0F015D6F000E2C6E000E2B6ECBECA5
:100F900005F0000E2C6E000E2B6E91EC06F0120088
:100FA000CF68FD0ECE6E80849E90CD809EA0FED731
:100FB000CD908094000ECF6E000ECE6E1200958004
:100FC00095826C8A280E6C6E000E6B6E270E6E6E0C
:100FD000800E6D6E1200000E0F01516FA00E0F01FA
:100FE000526F0F0153697E900F01518512008C9052
:100FF0008C92959095920F013B910F013B931200BB
:10100000000EBA6EA00EBB6EBC689E92BA8412002F
:10101000CD808096CD9012008A0EC06E12007D00A9
:020000040020DA
:08000000FFFFFFFFFFFFFFFF00
:020000040030CA
:0E000000FF221F3CFFBF85FF0FC00FE00F4027
:00000001FF
